S013000055534152545F5472616E732E737265631B
S11300000C942A000C9447000C9447000C9447006D
S11300100C9447000C9447000C9447000C94470040
S11300200C9447000C9447000C9447000C94470030
S11300300C9447000C9447000C9447000C94470020
S11300400C9447000C9447000C9447000C94470010
S11300500C94470011241FBECFE5D4E0DEBFCDBF12
S113006010E0A0E6B0E0EEE0F1E002C005900D92F1
S1130070AC36B107D9F720E0ACE6B0E001C01D9280
S1130080AD36B207E1F70E9463000C9485000C942E
S1130090000090BD89B988E18AB98EE880BD0895D1
S11300A05D9BFECF8CB90895CF93DF93EC0103C021
S11300B00E945000219688818111FACF0E9450003D
S11300C0DF91CF91089583E390E00E94490083E09B
S11300D080936C0080916C000E9450002FEF81E1AE
S11300E09AE7215080409040E1F700C0000080E68C
S11300F090E00E9454002FEF8DE399E4215080405A
S11101009040E1F700C00000E5CFF894FFCF77
S10F010E68656C6C6F20776F726C640085
S9030000FC
