S01F0000696E746572666163696E675F776974685F6B65797061642E7372656383
S11300000C9429010C9446010C9446010C9446016D
S11300100C9446010C9446010C9446010C94460140
S11300200C9446010C9446010C9446010C94460130
S11300300C9446010C9446010C9446010C94460120
S11300400C9446010C9446010C9446010C94460110
S11300500C94460108590A052060010103050505B1
S11300600601020203050105010505030505050551
S11300700505050501010305030505050505050538
S1130080050505030505050505050505050505051E
S11300900505050505020502030502050505050517
S11300A005050503050505050505050505050505FE
S11300B00505050505030103040000B818001845EB
S11300C0F845F845B8A8F8A8E8985820D0C8D8A8A2
S11300D0A8D840A018708888702810282020F820FC
S11300E020C0202020202080804020100870888894
S11300F0887088F880E8A8A8A8B8A8A8A8A8F86074
S11301004548F840B8A8A8A8E8F8A8A8A8E8088826
S1130110482818F8A8A8A8F8B8A8A8A8F845D0208E
S1130120458845454545458845200808A82838F8A8
S113013088E8A8F8F8282828F8F8A8A8A870F88863
S1130140888888F888888870F8A8A8A8A8F8282833
S11301502828F888A8A8E8F8202020F888F88840FB
S113016080888878F820204588F880808080F8107E
S11301702010F8F8102040F8F8888888F8F8282823
S11301802838F88888C8F8F82828E8B8B8A8A8A8AB
S1130190E80808F80808F8808080F838408040387B
S11301A0788078807888452045881820C020188871
S11301B0C8A89888F888081020408088F81008108B
S11301C080808080800810F8282828F8F8A8A8A83B
S11301D070F888888888F888888870F8A8A8A8A8FB
S11301E0F828282828F888A8A8E8F8202020F888E3
S11301F0F8884080888878F820204588F8808080B6
S113020080F8102010F8F8102040F8F8888888F852
S1130210F828282838F88888C8F8F82828E8B8B8CA
S1130220A8A8A8E80808F80808F8808080F83840EA
S1130230804038788078807888452045881820C0A8
S1130240201888C8A8988820D888F888D82010084A
S1130250100811241FBECFE5D4E0DEBFCDBF10E0EF
S1130260A0E6B0E0E6E9FAE002C005900D92A038FD
S1130270B107D9F720E0A0E8B0E001C01D92AD3885
S1130280B207E1F70E942B050C9449050C94000079
S1130290FC01849108959093880080938700709363
S11302A0860060938500409381000895CF93DF9387
S11302B01F92CDB7DEB7611107C09BB39F7E9BBB76
S11302C09BB398609BBB08C0613031F49BB3977FAC
S11302D09BBB9BB390619BBB9BB39B7F9BBB9BB323
S11302E09D7F9BBB9FEF97BB88BB8BB381608BBB10
S11302F08FE18A95F1F700C08BB38E7F8BBB198297
S113030003C089818F5F898389818830D0F318BACB
S11303100F90DF91CF910895CF9388230CF480E060
S1130320603408F060E0E2E8F0E080836183669581
S1130330669566956283803418F0805461E001C04C
S113034060E080640E945601C0918400C86B60E044
S11303508C2F0E94560161E08C2F0E945601CF9190
S11303600895E2E8F0E01082118212828093800006
S11303708FEF8ABB60E08FE30E94560161E08FE358
S11303800E94560160E080EC0E94560161E080EC1E
S11303900E94560160E080E00E948C0108951F9342
S11303A0CF93DF931F92CDB7DEB718BA17BA9091E7
S11303B08200903438F49BB39F7E9BBB9BB39860C0
S11303C09BBB08C0903430F09BB3977F9BBB9BB31F
S11303D090619BBB90918200903431F4882321F08A
S11303E061E080E40E9456018BB384608BBB8BB3C5
S11303F082608BBB8BB381608BBB8FE18A95F1F7F5
S113040000C016B38BB38E7F8BBB198203C0898166
S11304108F5F898389818830D0F38FEF87BBE2E8CF
S1130420F0E0618180810E948C01809180008111C3
S11304301095812F0F90DF91CF911F910895CF9246
S1130440DF92EF92FF920F931F93CF93DF9300D02D
S113045000D01F92CDB7DEB7E82E1A82198205C0EC
S113046089819A8101969A83898389819A818439C1
S11304709141B0F38091820088230CF4A7C08034AA
S113048038F48BB38F7E8BBB8BB388608BBB08C077
S1130490803430F08BB3877F8BBB8BB380618BBB95
S11304A080918200803419F461E00E9456018BB37C
S11304B084608BBB8BB38D7F8BBB8FEF87BB10911D
S11304C08300177009F465C00BB381E00E94CF016B
S11304D080E00E94CF010BBB9FEF97BBF12CC12E94
S11304E0D12C970102C0220F331F1A95E2F7822BF9
S11304F0909180009111809588BB8BB381608BBBF8
S11305008FE18A95F1F700C08BB38E7F8BBB1D8280
S113051003C09D819F5F9D839D819830D0F3E2E865
S1130520F0E06181685F80810E948C0181E00E941B
S1130530CF0180E00E94CF010BBB9FEF97BB28E067
S113054030E02C193D0902C0F594E7942A95E2F7AE
S1130550E82A809180008111E094E8BA8BB381602D
S11305608BBB2FE12A95F1F700C08BB38E7F8BBB39
S11305701C8203C08C818F5F8C838C818830D0F384
S1130580E2E8F0E06181808168508F5F0E948C0115
S11305901CC0809180008111E094E8BA8BB3816023
S11305A08BBB8FE18A95F1F700C08BB38E7F8BBB39
S11305B01B8203C08B818F5F8B838B818830D0F348
S11305C0E2E8F0E080818F5F808318BA0F900F908B
S11305D00F900F900F90DF91CF911F910F91FF908B
S11305E0EF90DF90CF9008958F929F92AF92BF9239
S11305F0CF92DF92EF92FF920F931F93CF93DF93EB
S1130600D82FE0918500F091860080918700909129
S1130610880003960995082F10E0C80107967C010D
S11306201AF427E0E20EF11CF594E794F594E794AC
S1130630F594E794AE2CE0918500F09186008091CA
S113064087009091880004960995C82FE091850051
S1130650F091860080918700909188000596099515
S1130660882EE2E8F0E0B0809180DC1708F492C0B4
S11306702D2F30E090E08C0F911D281739070CF0D6
S11306808CC0DC1BC0E0C12CD12C11C08C2F90E09D
S113069006962091870030918800E0918500F091C2
S11306A08600820F931F0995C80ED11CCF5FCD170A
S11306B068F3EC9CC001ED9C900D11247C01E80CC6
S11306C0F11C86E0E80EF11CE0918500F0918600B3
S11306D08D2F90E006962091870030918800820F3C
S11306E0931F0995D82ED0E049C0DD9DC02C11245C
S11306F0C0E030C0E0918500F0918600C7018C0D08
S1130700911D8C0F911D2091870030918800820FDC
S1130710931F09952D2F30E02F5F3F4F220F331F7A
S1130720220F331F220F331F0217130744F4201B19
S1130730310B90E002C0959587952A95E2F7909148
S113074081009F3F19F40E941F0203C080950E94FC
S11307501F02CF5FCD1570F2809181008F3F21F48D
S113076080E00E941F0203C08FEF0E941F0260916D
S11307708300685F8B2D0E948C01DF5FDA1508F41B
S1130780B4CF8B2D8D0D692D8F5F0E948C0180E07D
S113079090E005C081E090E002C081E090E0DF914C
S11307A0CF911F910F91FF90EF90DF90CF90BF906A
S11307B0AF909F908F9008950F931F93CF93DF93E3
S11307C0EC010091820017C08A3091F410918300EB
S11307D08091870090918800E0918500F0918600D7
S11307E003960995612F680F802F0E948C0102C027
S11307F00E94F402219688818111E6CFDF91CF9186
S11308001F910F91089585B3816085BB87EC90E0BB
S11308100197F1F700C0000085B38E7F85BB87EC9C
S113082090E00197F1F700C00000089525B32B7FF5
S113083025BB25B32D7F25BB8034910538F495B3B2
S1130840986095BB95B39F7E95BB07C095B3977F82
S113085095BB95B3906195BB80548F77806488BBBA
S11308600E940304089595B39B7F95BB95B39D7F28
S113087095BB8770886B88BB0E9403040895CF934F
S1130880DF93EB010E941604CE010E943304DF9132
S1130890CF91089595B3946095BB95B39D7F95BB17
S11308A088BB87EC90E00197F1F700C000000E943C
S11308B003040895CF93DF93C82FD0E0BE0180E0F6
S11308C090E00E943F04BE0180E490E00E943F0457
S11308D085B3886085BBC0E0D0E004C080E00E949E
S11308E04A042196C034D105CCF3DF91CF91089509
S11308F0CF93DF93C0E0D0E004C08C2F0E945A0451
S11309002196C830D105CCF3DF91CF91089580EFC3
S113091084BB8FEF85BB85B38F7085BB000083B329
S11309208F70809389008F30B1F78FE39CE9019732
S1130930F1F700C0000083B38F70809389008F307B
S1130940A1F39FEF29EF80E0915020408040E1F730
S113095000C0000083B38F70809389008F3029F327
S11309608FEE85BB000083B38F70809389008F3036
S113097019F010928A0027C08FED85BB000083B365
S11309808F70809389008F3021F081E080938A00FA
S11309901AC08FEB85BB000083B38F7080938900EE
S11309A08F3021F082E080938A000DC08FE785BBF1
S11309B0000083B38F70809389008F3009F4A7CF30
S11309C083E080938A00809189008E3081F4E091E5
S11309D08A00F0E0EE0FFF1FEE0FFF1FEE0FFF1F68
S11309E0E05AFF4F0190F081E02D808108958D3011
S11309F081F4E0918A00F0E0EE0FFF1FEE0FFF1F7D
S1130A00EE0FFF1FE05AFF4F0280F381E02D80813B
S1130A1008958B3081F4E0918A00F0E0EE0FFF1F1F
S1130A20EE0FFF1FEE0FFF1FE05AFF4F0480F5810A
S1130A30E02D80810895E0918A00F0E0EE0FFF1F21
S1130A40EE0FFF1FEE0FFF1FE05AFF4F0680F781E6
S1130A50E02D8081089580E00E94B1010E94780415
S1130A600E94870490E090938C0080938B004FEF5A
S1130A7068E471E084E590E00E944B0162E082E06A
S1130A800E948C0180918B0090918C000E94DC0369
S1090A90E7CFF894FFCF4C
S1130A963700380039002F003400350036002A00AC
S1130AA63100320033002D00200030003D002B00C1
S9030000FC
