:100000000C942A000C943C000C943C000C943C0092
:100010000C943C000C943C000C943C000C943C0070
:100020000C943C000C943C000C943C000C943C0060
:100030000C943C000C943C000C943C000C943C0050
:100040000C943C000C943C000C943C000C943C0040
:100050000C943C0011241FBECFE5D4E0DEBFCDBF21
:1000600020E0A0E6B0E001C01D92A43CB207E1F799
:100070000E9454000C9480000C94000090BD89B93B
:1000800088E18AB98EE880BD08955F9BFECF8CB170
:100090000895CF93DF93EC010E944500899381116D
:1000A000FBCFDF91CF9108958FEF87BB83E390E083
:1000B0000E943E000E944500C82F80E690E00E940A
:1000C0004900C330C9F488B3816088BB2FEF80E753
:1000D00092E0215080409040E1F700C0000088B3DA
:1000E0008E7F88BB2FEF80E792E0215080409040C8
:1000F000E1F700C00000DECF88B38E7F88BBDACF87
:04010000F894FFCFA1
:00000001FF
