S01D0000496E746572666163696E675F776974685F474C43442E7372656309
S11300000C9454080C9471080C9471080C947108A5
S11300100C9471080C9471080C9471080C94710878
S11300200C9471080C9471080C9471080C94710868
S11300300C9471080C9471080C9471080C94710858
S11300400C9471080C9471080C9471080C94710848
S11300500C947108163A0A0B206003020206050785
S1130060090103040205020301050504050405064C
S11300700505050502030505050407070706080726
S113008007070A05060907090A06070909060808F1
S1130090080B090907030304030602040404060405
S11300A00606040304060306040405050404040404
S11300B00608070506030104050600000000000009
S11300C0803E000008060000A078AE782E080000EC
S11300D000000000808CF2BF6200200000001C922F
S11300E07E0CE290700000000000000070C8A8B808
S11300F06CBE02C2010000000000002000000800E5
S1130100E018066080000000C33C402000000C0F93
S1130110000010107C10100000000000008040203F
S1130120202020000000800000C0300C036000008C
S11301300000788482423C00000000008088FC8635
S113014000000000C0C4A2924E0000000000C08065
S1130150DA76000000002030A87E020000000000D3
S11301608080844A320200000000000070AC947267
S1130170020000000000C4320A0602000000000071
S1130180E0AC926A060000000000809C52721C00E1
S1130190000000008008000000800840200030308B
S11301A048484800000000002828282828000000AB
S11301B00000484848303000000000008036120C2F
S11301C00000000070CCB4AABA621C000000000059
S11301D0000000804C322EFE82200000000000004F
S11301E0382486FA8E8A7600000000000000F08C25
S11301F00402820C002020200000384C86EA9A82F7
S1130200463C00000000000000003884E29E92BAE0
S1130210C6000000000000001C86E29E123A0600A0
S1130220000000000000708C8482D23216008080AE
S1130230C0200000C08CC23A1690F886010300006A
S1130240000000000000000080C0FA060200000068
S1130250000000000CC23A066040402000008C827E
S1130260F21E788806020200000000002040404090
S113027080C0B8848282C000000000000000809C1E
S1130280621EF86090FC0E000000000000000000F8
S1130290800CE2120EF0700C02022020000000001C
S11302A00000000078C48282463C00000000000088
S11302B038CC86FA92120C0000000000000078C4CA
S11302C0828242261C00000000002060C080804022
S11302D038A486FA32D20C0000000000000000604E
S11302E0404080000C92E20E0020202000001C867A
S11302F082F28E02020300000000000000000C7A6B
S113030086808040300F00000000000000000C06D2
S1130310FE4220100C0300000000000000000C0648
S1130320FE320804FE201008070000000000000050
S113033000000000008040221EF482010120200001
S11303400000000000001C0482C6BC8C02020100F4
S1130350000000000000000080C0A6928A86C2004F
S113036000000000000000F00FC0A00007FC8000A7
S113037000600000F10F80E00000040204000000AF
S113038000000000000040404040404001020000E6
S1130390E090C8B800000000E09E49390000000069
S11303A0E090884800000000E09048F84E0100000A
S11303B000000000F0B0A85800000000009078167B
S11303C0010140200000000000E09088E818E0806F
S11303D080C06000E01ED1B900000000E0380200D7
S11303E000000090780280600000E03EE9190000FF
S11303F0000000604040E09C42000000C838D03853
S1130400F098000000000000E818D0B800000000D8
S1130410F088C8380000000088F8904838E0800070
S11304200000E09088E8180080C0A000C8381008D8
S113043000000000C098E80800000000E89C884024
S113044000000000E898E098000000001008F88818
S113045060180000000000001008F88840F84038D8
S1130460000000000000000080D058F010080000D8
S11304700000002040601018F0C0388040200000C8
S113048080D8A898D808000000000000A0D807E091
S11304908000FFE00000D12F80C020000808181061
S11304A0100000000000FF81818181FF0000000036
S11304B0000008590A05206001010305050506012D
S11304C002020305010501050503050505050505EA
S11304D005050101030503050505050505050505D4
S11304E005030505050505050505050505050505BA
S11304F005050502050203050205050505050505B3
S11305000503050505050505050505050505050599
S1130510050505030103040000B818001845F84553
S1130520F845B8A8F8A8E8985820D0C8D8A8A8D8FA
S113053040A018708888702810282020F82020C037
S11305402020202020808040201008708888887017
S113055088F880E8A8A8A8B8A8A8A8A8F86045487A
S1130560F840B8A8A8A8E8F8A8A8A8E808884828DF
S113057018F8A8A8A8F8B8A8A8A8F845D0204588CD
S113058045454545458845200808A82838F888E8A1
S1130590A8F8F8282828F8F8A8A8A870F88888885F
S11305A088F888888870F8A8A8A8A8F8282828288F
S11305B0F888A8A8E8F8202020F888F888408088DF
S11305C08878F820204588F880808080F8102010F2
S11305D0F8F8102040F8F8888888F8F8282828388F
S11305E0F88888C8F8F82828E8B8B8A8A8A8E808B7
S11305F008F80808F8808080F8384080403878800F
S113060078807888452045881820C0201888C8A894
S11306109888F888081020408088F8100810808096
S11306208080800810F8282828F8F8A8A8A870F86E
S113063088888888F888888870F8A8A8A8A8F828DE
S1130640282828F888A8A8E8F8202020F888F8881E
S11306504080888878F820204588F880808080F859
S1130660102010F8F8102040F8F8888888F8F82846
S1130670282838F88888C8F8F82828E8B8B8A8A836
S1130680A8E80808F80808F8808080F83840804016
S113069038788078807888452045881820C02018CC
S11306A088C8A8988820D888F888D8201008100806
S11306B00B640A0720600000000000000000000036
S11306C00000000000000000000000000000000026
S11306D000000000000000080708080707080808D1
S11306E00807060A0808070807080807070A07088A
S11306F008000000000000080708080707080808A9
S11307000807060A0808070807080807070A070869
S1130710080000000000FC8682EAEA8286FCFE8271
S113072082AA82D67C7CC682BABA92D67CFE8282A7
S1130730BABA82C67CFE8282AAAABAEEFE8282EA93
S11307402A3A0E7CC682BABA8ACE78FE8282EEEE4D
S11307508282FEEEAABA8282BAAAEEFE9ABA82C255
S11307607A0A0EFE8282EE8292FEFE8282BEA0E0B1
S1130770FE8282FA8282FA8286FCFE8282E6CE823F
S113078082FE7CC682BABA82C67CFE8282DA426665
S11307903C7CC682BABAC2A6FCFE8282DA82A6FC7D
S11307A0FEA2A2AAAA8A8AFE0E0AFA8282FA0A0E75
S11307B07EC282BE8282FE7EC282BE82C27E7EC231
S11307C082BE8282BE82C27EFE9282EE8292FE1E31
S11307D032E28E8EE2321EFE9A9AAAAAB2B2FEFCCF
S11307E08682EAEA8286FCFE8282AA82D67C7CC663
S11307F082BABA92D67CFE8282BABA82C67CFE8261
S113080082AAAABAEEFE8282EA2A3A0E7CC682BA8A
S1130810BA8ACE78FE8282EEEE8282FEEEAABA8296
S113082082BAAAEEFE9ABA82C27A0A0EFE8282EED8
S11308308292FEFE8282BEA0E0FE8282FA8282FA68
S11308408286FCFE8282E6CE8282FE7CC682BABAB0
S113085082C67CFE8282DA42663C7CC682BABAC216
S1130860A6FCFE8282DA82A6FCFEA2A2AAAA8A8A38
S1130870FE0E0AFA8282FA0A0E7EC282BE8282FECC
S11308807EC282BE82C27E7EC282BE8282BE82C29C
S11308907EFE9282EE8292FE1E32E28E8EE2321E44
S11308A0FE9A9AAAAAB2B2FE00000000000000005C
S11308B00000000000000000000000000000000034
S11308C00000000000000000000000000000000024
S11308D00000000000000000000000000000000014
S11308E00000000000000000000000000000000004
S11308F000000000000000000000000000000000F4
S113090000000000000000000000000000000000E3
S113091000000000000000000000000000000000D3
S113092000000000000000002020282868B060209B
S11309302020282A283020200080804432242020AF
S1130940002424243820202020202020242A1100C0
S1130950202020242A11202030202020242A112085
S1130960202030203028281820242221242A110075
S1130970242221242A11202030242221242A112057
S1130980008080403020202020202060A06028307B
S113099020202060B060202000302860A06030203B
S11309A00004061D25242020000000000000000093
S11309B000004F00000000000007000700000000D6
S11309C000147F147F14000000242A7F2A120000E0
S11309D000231308646200000036495522400000D9
S11309E00000050300000000001C2241000000007C
S11309F00041221C000000000014083E08140000FE
S1130A000008083E08080000000028180000000044
S1130A100008080808080800003030000000000042
S1130A200020100804020000003E5149453E000029
S1130A300000427F4000000000426151494600002E
S1130A40002141454B310000001814127F100000B2
S1130A500000274545453900003C4A49493000001B
S1130A6000017109050300000036494949360000B8
S1130A7000064949291E0000000036360000000027
S1130A800000563600000000000814224100000057
S1130A90002424242424000000004122140800001F
S1130AA0000201510906000000324979413E00006C
S1130AB0007E1111117E0000007F49494936000073
S1130AC0003E414141220000007F4141221C0000C0
S1130AD0007F494949410000007F090909010000DC
S1130AE0003E4149493A0000007F0808087F0000A1
S1130AF00000417F41000000002040413F01000010
S1130B00007F081422410000007F40404040000064
S1130B10007F020C027F0000007F0408107F0000A9
S1130B20003E4141413E0000007F090909060000E2
S1130B303E4151215E000000007F09192946000052
S1130B4000464949493100000001017F01010000CC
S1130B50003F4040403F0000001F2040201F000095
S1130B60003F4060403F000000631408146300002D
S1130B700007087008070000006151494543000060
S1130B80007F4141000000000015167C161500008E
S1130B900041417F00000000000402010204000043
S1130BA000404040404000000001020400000000FA
S1130BB00020545454780000007F4444443800001A
S1130BC0003844444400000000384444487F000096
S1130BD0003854545418000000107E110102000023
S1130BE0000C5252523E0000007F080404780000BA
S1130BF00000447D40000000002040403D00000013
S1130C00007F1028440000000000417F40000000E5
S1130C10007C041804780000007C080404780000B8
S1130C200038444444380000007C141414080000C4
S1130C3000081414187C0000007C08040408000058
S1130C40004854545420000000043F444020000055
S1130C50003C4040207C0000001C2040201C000080
S1130C60001E2010201E0000002214081422000080
S1130C7000064848483E0000004464544C440000C8
S1130C8000083641000000000000007F0000000062
S1130C9000413608000000000008082A1C08000073
S1130CA000081C2A08080000003C4241423C0000A5
S1130CB000302860A060283020202020A020283088
S1130CC020202020B020202000302820A020302008
S1130CD020202022202228302020202230222020E0
S1130CE000302822202230202020202221222830D7
S1130CF020202022312220200030282221223020CE
S1130D002020282828B0202020202828283020200F
S1130D1000C0A82868B0602000008080443204002D
S1130D20002425243820202030242221242A1100C4
S1130D3000808040342020202020203820382018B3
S1130D4020203820382038206080807820382018EF
S1130D502020203822392218202038223922382015
S1130D60608080782239221830202020242A110023
S1130D7020302030282838206080806030282838AF
S1130D802020302030282A1820302030282A3820EB
S1130D906080806030282A3820203E30282838207F
S1130DA020203E30282A38202020202030282800E7
S1130DB020202030282820200040A0B028282020EF
S1130DC02020202030282A0020202030282A2020FB
S1130DD00040A0B0282A20202020202030282A30BB
S1130DE0202030282A3020200018202030282A30C3
S1130DF020202020302A28322020302A2832202087
S1130E00608080B2A87A2020222525252525251951
S1130E102020201C2221202030282C2A203F202082
S1130E202020202020201F00202020201F202020E0
S1130E30003040403F2020202020202030484830EF
S1130E40202030484830202080403048483020203E
S1130E502020202022201800202020201A202020BA
S1130E60304044403020202020202030283A2C18C4
S1130E70202030283A2C3820001814141820202060
S1130E800021222428100F0000B0A8782020202060
S1130E90202020A020A02830202020A030A0202026
S1130EA000608080A0501020001E202020202020E0
S1130EB00020302828200000000402023A02020127
S1130EC0000004063D050400000004B6AD7D0400E6
S1130ED0000080C0BFA0800004668595A8A84800D3
S1130EE00000003F0000000000302820A02028302F
S1130EF00000302A28320000003028222022283026
S1130F00003028222122283000C0A8A828B02020A0
S1130F1000C0A8A8A830202000C0A8AA28302020FB
S1130F200000242424380000000024252438000074
S1130F3000808040300000000000808040340000C9
S1130F4060808078203820186080807822392218C8
S1130F5060808060302828186080806030282A18DB
S1130F60002214081422000020203E3028281800F3
S1130F7020203E30282A1800000040A0B028280075
S1130F80000040A0B02A280020202020202020207B
S1130F900018202030282A3000608080B2A87A000F
S1130FA00030282C2A203F000040A9AAA8F0000005
S1130FB000006080807E00000040AAA9AAF0000022
S1130FC00000C02030282830000060808880600045
S1130FD00000302828300000000000B0A87800008D
S1130FE00426252528100F000422222629100F008C
S1130FF000212224A8D0AFA00070AAA9AA30000022
S11310000070AAA8AA300000003040405028080010
S11310100030C040D028080000000279020000001F
S11310200000027802000000000000000005050531
S113103000000004030B0606A0A0A00000000000AE
S113104000000101010100000021222428102F20AA
S11310500000000000040303000080808080000082
S113106000001010541010000000020402040200DA
S1131070202426252520283020242625352020201C
S1131080086C8A8AA050102004B6AD7D242020204C
S113109000191415182020200402021A22222120EB
S11310A0004060504850404011241FBECFE5D4E0BA
S11310B0DEBFCDBF10E0A0E6B0E0ECEAFBE102C089
S11310C005900D92AC37B107D9F720E0ACE7B0E05A
S11310D001C01D92A538B207E1F70E944D0D0C9492
S11310E0D40D0C940000FC01849108959093840025
S11310F080938300709382006093810040937D000D
S11311000895CF93DF931F92CDB7DEB7611107C067
S11311109BB39F7E9BBB9BB398609BBB08C0613015
S113112031F49BB3977F9BBB9BB390619BBB9BB3F9
S11311309B7F9BBB9BB39D7F9BBB9FEF97BB88BB58
S11311408BB381608BBB8FE18A95F1F700C08BB3C1
S11311508E7F8BBB198203C089818F5F89838981CC
S11311608830D0F318BA0F90DF91CF910895CF93C0
S113117088230CF480E0603408F060E0EEE7F0E0EF
S1131180808361836695669566956283803418F0E2
S1131190805461E001C060E080640E948108C091D5
S11311A08000C86B60E08C2F0E94810861E08C2F66
S11311B00E948108CF910895EEE7F0E01082118239
S11311C0128280937C008FEF8ABB60E08FE30E94E1
S11311D0810861E08FE30E94810860E080EC0E9456
S11311E0810861E080EC0E94810860E080E00E9458
S11311F0B70808951F93CF93DF931F92CDB7DEB73F
S113120018BA17BA90917E00903438F49BB39F7E3D
S11312109BBB9BB398609BBB08C0903430F09BB3DE
S1131220977F9BBB9BB390619BBB90917E00903456
S113123031F4882321F061E080E40E9481088BB3BB
S113124084608BBB8BB382608BBB8BB381608BBBA5
S11312508FE18A95F1F700C016B38BB38E7F8BBBF9
S1131260198203C089818F5F898389818830D0F393
S11312708FEF87BBEEE7F0E0618180810E94B708C1
S113128080917C0081111095812F0F90DF91CF9177
S11312901F910895CF92DF92EF92FF920F931F93C5
S11312A0CF93DF9300D000D01F92CDB7DEB7E82EE6
S11312B01A82198205C089819A8101969A83898349
S11312C089819A8184399141B0F380917E00882389
S11312D00CF4A7C0803438F48BB38F7E8BBB8BB3F4
S11312E088608BBB08C0803430F08BB3877F8BBBA6
S11312F08BB380618BBB80917E00803419F461E0F4
S11313000E9481088BB384608BBB8BB38D7F8BBBB6
S11313108FEF87BB10917F00177009F465C00BB382
S113132081E00E94FA0880E00E94FA080BBB9FEF5C
S113133097BBF12CC12ED12C970102C0220F331F71
S11313401A95E2F7822B90917C009111809588BBCD
S11313508BB381608BBB8FE18A95F1F700C08BB3AF
S11313608E7F8BBB1D8203C09D819F5F9D839D816A
S11313709830D0F3EEE7F0E06181685F80810E94ED
S1131380B70881E00E94FA0880E00E94FA080BBBCB
S11313909FEF97BB28E030E02C193D0902C0F5947B
S11313A0E7942A95E2F7E82A80917C008111E09481
S11313B0E8BA8BB381608BBB2FE12A95F1F700C0AB
S11313C08BB38E7F8BBB1C8203C08C818F5F8C831D
S11313D08C818830D0F3EEE7F0E061818081685041
S11313E08F5F0E94B7081CC080917C008111E0943B
S11313F0E8BA8BB381608BBB8FE18A95F1F700C0AB
S11314008BB38E7F8BBB1B8203C08B818F5F8B83DF
S11314108B818830D0F3EEE7F0E080818F5F8083AA
S113142018BA0F900F900F900F900F90DF91CF91FB
S11314301F910F91FF90EF90DF90CF9008958F92BE
S11314409F92AF92BF92CF92DF92EF92FF920F934F
S11314501F93CF93DF93A82ED42F99249394920EA5
S1131460862F8770162F181BE92CF12C28E030E00A
S1131470281B3109E216F3067CF428E030E02E192B
S11314803F094FEF50E06A0102C0D594C7942A95F2
S1131490E2F79C2DB92C04C098E0B92EB81A9FEF3E
S11314A0C92ED12C02C0CC0CDD1C8A95E2F78C2C01
S11314B0612F8A2D0E94B708C0E010C081E00E940D
S11314C0FA0880E00E94FA080F3F11F4882903C04B
S11314D09C2D909589230E944A09CF5FDC1770F7F1
S11314E00FC088E0B80E185F612F8A2D0E94B708DC
S11314F0C0E004C0802F0E944A09CF5FDC17D0F7F8
S11315008B2D90E0AC01485F5F4FE416F5064CF775
S1131510B91420F5E81AF90A8FEF90E002C0880F99
S1131520991FEA94E2F7F82EF09468E0610F8A2D8F
S11315300E94B708C0E010C081E00E94FA0880E071
S11315400E94FA080F3F11F48F2903C09F2D909534
S113155089230E944A09CF5FDC1770F7DF91CF918E
S11315601F910F91FF90EF90DF90CF90BF90AF90BD
S11315709F908F9008952F923F924F925F926F9217
S11315807F928F929F92AF92BF92CF92DF92EF920F
S1131590FF920F931F93CF93DF93D82FC62F342E30
S11315A0222E102F84130DC0261710F4C22F262EBE
S11315B0222D2C1B012F40E06C2F8D2F0E941F0A1F
S11315C0C6C062130DC0481710F4D42F382E432D13
S11315D04D1B012F20E06C2F8D2F0E941F0AB7C0D6
S11315E0422F50E0262F30E0BA01621B730B832D8B
S11315F090E08D1B91096817790734F4241B350B8F
S1131600281739070CF452C03D1630F48C2FC22D24
S1131610282E8D2FD32D382E3D1A622C712C8C2E12
S1131620912C6301C818D90828EC2C9DC0012D9D6C
S1131630900D1124E32CF12CB7010E94AC0D5B0139
S11316403C2F412C30C04A9CC0014B9C900D11246E
S113165068EC70E00E94AC0D5C2E560E482F592F9A
S11316604F35510514F0539404C0423A5F4F0CF4C3
S11316705A94012F252D8D2F840D482F632F0E94FE
S1131680BB0ACE14DF0424F0C21510F4539409C02D
S1131690C401861997098E159F051CF02C1608F4B1
S11316A05A944394352D341470F651C02C1630F4EA
S11316B08C2FC22D282E8D2FD32D382E2C1A832C0F
S11316C0912C6D2E712C6401C618D70828EC2C9D22
S11316D0C0012D9D900D1124E22CF12CB7010E9424
S11316E0AC0D5B013D2F412C30C04A9CC0014B9C8A
S11316F0900D112468EC70E00E94AC0D5D2E560E26
S1131700482F592F4F35510514F0539404C0423AD1
S11317105F4F0CF45A94012F6C2F640D262F452D26
S1131720832F0E94BB0ACE14DF0424F0D31510F4D7
S1131730539409C0C301881999098E159F051CF09B
S11317403D1608F45A944394352D241470F6DF9111
S1131750CF911F910F91FF90EF90DF90CF90BF90AA
S1131760AF909F908F907F906F905F904F903F903D
S11317702F9008958F929F92AF92BF92CF92DF9253
S1131780EF92FF920F931F93CF93DF93D82FE091A3
S11317908100F091820080918300909184000396EF
S11317A00995082F10E0C80107967C011AF427E078
S11317B0E20EF11CF594E794F594E794F594E7941C
S11317C0AE2CE0918100F091820080918300909191
S11317D0840004960995C82FE0918100F09182005D
S11317E0809183009091840005960995882EEEE7F8
S11317F0F0E0B0809180DC1708F492C02D2F30E027
S113180090E08C0F911D281739070CF08CC0DC1B5D
S1131810C0E0C12CD12C11C08C2F90E006962091F1
S1131820830030918400E0918100F0918200820F66
S1131830931F0995C80ED11CCF5FCD1768F3EC9C9C
S1131840C001ED9C900D11247C01E80CF11C86E094
S1131850E80EF11CE0918100F09182008D2F90E060
S113186006962091830030918400820F931F09957E
S1131870D82ED0E049C0DD9DC02C1124C0E030C07A
S1131880E0918100F0918200C7018C0D911D8C0FB5
S1131890911D2091830030918400820F931F09953C
S11318A02D2F30E02F5F3F4F220F331F220F331FA6
S11318B0220F331F0217130744F4201B310B90E04F
S11318C002C0959587952A95E2F790917D009F3FF8
S11318D019F40E944A0903C080950E944A09CF5F07
S11318E0CD1570F280917D008F3F21F480E00E943D
S11318F04A0903C08FEF0E944A0960917F00685F24
S11319008B2D0E94B708DF5FDA1508F4B4CF8B2D56
S11319108D0D692D8F5F0E94B70880E090E005C0AF
S113192081E090E002C081E090E0DF91CF911F91CF
S11319300F91FF90EF90DF90CF90BF90AF909F906A
S11319408F9008950F931F93CF93DF93EC01009131
S11319507E0017C08A3091F410917F00809183003B
S113196090918400E0918100F091820003960995A2
S1131970612F680F802F0E94B70802C00E94BA0B23
S1131980219688818111E6CFDF91CF911F910F912C
S1131990089585B3816085BB87EC90E00197F1F7EA
S11319A000C0000085B38E7F85BB87EC90E0019773
S11319B0F1F700C00000089525B32B7F25BB25B3A4
S11319C02D7F25BB8034910538F495B3986095BB81
S11319D095B39F7E95BB07C095B3977F95BB95B391
S11319E0906195BB80548F77806488BB0E94C90C3A
S11319F0089595B39B7F95BB95B39D7F95BB8770E9
S1131A00886B88BB0E94C90C0895CF93DF93EB01C8
S1131A100E94DC0CCE010E94F90CDF91CF91089555
S1131A2095B3946095BB95B39D7F95BB88BB87ECBC
S1131A3090E00197F1F700C000000E94C90C0895DE
S1131A40CF93DF93C82FD0E0BE0180E090E00E94E6
S1131A50050DBE0180E490E00E94050D85B3886009
S1131A6085BBC0E0D0E004C080E00E94100D219648
S1131A70C034D105CCF3DF91CF910895CF93DF9398
S1131A80C0E0D0E004C08C2F0E94200D2196C83005
S1131A90D105CCF3DF91CF9108950F9380E00E949C
S1131AA0DC080E943E0D4FEF63E778E082EB94E0A0
S1131AB00E94760862E082E00E94B70880E690E027
S1131AC00E94A20C0FEF28E04FE768E080E00E943C
S1131AD0BB0A4FEF63E778E080EB96E00E9476085C
S1131AE06AE082E00E94B70887E690E00E94A20CB8
S1131AF022E14FE762E180E00E94BB0A4FEF63E717
S1131B0078E084E590E00E94760864E182E00E9437
S1131B10B7088EE690E00E94A20C20E24FE760E254
S1131B2080E00E94BB0A4FEF63E778E088EA98E020
S1131B300E94760862E282E00E94B70885E790E09E
S1131B400E94A20C28E24FE768E280E00E94BB0AF0
S1131B5080E090E00F91089597FB072E16F400940F
S1131B6007D077FD09D00E94C00D07FC05D03EF4D4
S1131B70909581959F4F0895709561957F4F089535
S1131B80AA1BBB1B51E107C0AA1FBB1FA617B7079F
S1131B9010F0A61BB70B881F991F5A95A9F78095BB
S10F1BA09095BC01CD010895F894FFCF8E
S1131BAC666F6E74203100666F6E74203200666F3F
S10F1BBC6E74203300666F6E74203400D9
S9030000FC
